{
  "contractName": "CallOOG",
  "abi": [
    {
      "inputs": [],
      "payable": false,
      "stateMutability": "nonpayable",
      "type": "constructor"
    },
    {
      "constant": true,
      "inputs": [],
      "name": "owner",
      "outputs": [
        {
          "internalType": "address",
          "name": "",
          "type": "address"
        }
      ],
      "payable": false,
      "stateMutability": "view",
      "type": "function"
    },
    {
      "constant": false,
      "inputs": [],
      "name": "test_invalid",
      "outputs": [],
      "payable": false,
      "stateMutability": "nonpayable",
      "type": "function"
    },
    {
      "constant": false,
      "inputs": [],
      "name": "test_revert",
      "outputs": [],
      "payable": false,
      "stateMutability": "nonpayable",
      "type": "function"
    },
    {
      "constant": false,
      "inputs": [],
      "name": "test_stop",
      "outputs": [],
      "payable": false,
      "stateMutability": "nonpayable",
      "type": "function"
    },
    {
      "constant": false,
      "inputs": [],
      "name": "testOpcodes",
      "outputs": [],
      "payable": false,
      "stateMutability": "nonpayable",
      "type": "function"
    }
  ],
  "bytecode": "0x608060405234801561001057600080fd5b50336000806101000a81548173ffffffffffffffffffffffffffffffffffffffff021916908373ffffffffffffffffffffffffffffffffffffffff16021790555060405161005d906100bf565b604051809103906000f080158015610079573d6000803e3d6000fd5b50600160006101000a81548173ffffffffffffffffffffffffffffffffffffffff021916908373ffffffffffffffffffffffffffffffffffffffff1602179055506100cb565b605b8061029e83390190565b6101c4806100da6000396000f3fe608060405234801561001057600080fd5b50600436106100575760003560e01c8063391521f41461005c57806355313dea146100665780636d3d1416146100705780638da5cb5b1461007a578063b9d1e5aa146100c4575b600080fd5b6100646100ce565b005b61006e610161565b005b610078610163565b005b610082610168565b604051808273ffffffffffffffffffffffffffffffffffffffff1673ffffffffffffffffffffffffffffffffffffffff16815260200191505060405180910390f35b6100cc61018d565b005b6000600160009054906101000a900473ffffffffffffffffffffffffffffffffffffffff169050600060405180807f697353616d654164647265737328616464726573732c61646472657373290000815250601e019050604051809103902090506000339050604051828152816004820152816024820152606481016040526020816044836000886101f4f15050505050565b005b600080fd5b6000809054906101000a900473ffffffffffffffffffffffffffffffffffffffff1681565bfefea265627a7a72315820683bfd17df4a359082562042e0da48ca63315a5c06c6c17ac5df272324e869d064736f6c634300051000326080604052348015600f57600080fd5b50603e80601d6000396000f3fe6080604052600080fdfea265627a7a72315820d1df95ba47bbe26f881536e6d9f9cab3534cc2bdb43d0b9fb4edab26e0465a9964736f6c63430005100032",
  "source": "pragma solidity <0.6.0;\n\nimport \"./Abstracts/CalledContract.sol\";\nimport \"./Abstracts/TestContractInterface.sol\";\n\ncontract CallOOG is CalledContract, TestContractInterface {\n\n  CalledContract calledContract;\n\n  constructor() public {\n    calledContract = new CalledContract();\n  }\n\n  modifier Owner (address _owner) {\n    require(msg.sender == _owner);\n    _;\n  }\n\n  function testOpcodes() public {\n\n    address contractAddr = address(calledContract);\n    bytes4 sig = bytes4(keccak256(\"isSameAddress(address,address)\")); //Function signature\n    address a = msg.sender;\n\n     assembly {\n         let ptr := mload(0x40)       //Find empty storage location using \"free memory pointer\"\n         mstore(ptr,sig)              //Place signature at begining of empty storage\n         mstore(add(ptr,0x04),a)      //First address parameter. just after signature\n         mstore(add(ptr,0x24),a)      //2nd address parameter - first padded. add 32 bytes (not 20 bytes)\n         mstore(0x40,add(ptr,0x64))   //Reset free pointer before the function call so we can actually use it!\n                                      //New free pointer position after the output values of the called function.\n\n         let success := call(\n                         500,          //500 gas, we want to force an OOG in this contract so explicitly have it be less than 700\n                         contractAddr, //To addr\n                         0,            //No wei passed\n                         ptr,          //Inputs are at location of ptr\n                         0x44,         //Inputs size two padded, so 68 bytes\n                         ptr,          //Store output over input\n                         0x20)         //Output is 32 bytes long\n     }\n\n  }\n\n}",
  "sourcePath": "/home/greg/code/github.com/ChainSafe/truffle-plugin-abigen/example/contracts/CallOOG.sol",
  "compiler": {
    "name": "solc",
    "version": "0.5.16+commit.9c3226ce.Emscripten.clang"
  },
  "schemaVersion": "3.0.23",
  "updatedAt": "2020-09-27T17:19:46.969Z",
  "devdoc": {
    "methods": {}
  },
  "userdoc": {
    "methods": {}
  }
}