{
  "contractName": "Env",
  "abi": [
    {
      "constant": true,
      "inputs": [],
      "name": "owner",
      "outputs": [
        {
          "internalType": "address",
          "name": "",
          "type": "address"
        }
      ],
      "payable": false,
      "stateMutability": "view",
      "type": "function"
    },
    {
      "constant": false,
      "inputs": [],
      "name": "test_invalid",
      "outputs": [],
      "payable": false,
      "stateMutability": "nonpayable",
      "type": "function"
    },
    {
      "constant": false,
      "inputs": [],
      "name": "test_revert",
      "outputs": [],
      "payable": false,
      "stateMutability": "nonpayable",
      "type": "function"
    },
    {
      "constant": false,
      "inputs": [],
      "name": "test_stop",
      "outputs": [],
      "payable": false,
      "stateMutability": "nonpayable",
      "type": "function"
    },
    {
      "constant": false,
      "inputs": [],
      "name": "testOpcodes",
      "outputs": [],
      "payable": false,
      "stateMutability": "nonpayable",
      "type": "function"
    }
  ],
  "bytecode": "0x6080604052336000806101000a81548173ffffffffffffffffffffffffffffffffffffffff021916908373ffffffffffffffffffffffffffffffffffffffff160217905550610122806100536000396000f3fe6080604052348015600f57600080fd5b506004361060505760003560e01c8063391521f414605557806355313dea14605d5780636d3d14161460655780638da5cb5b14606d578063b9d1e5aa1460b5575b600080fd5b605b60bd565b005b606360bf565b005b606b60c1565b005b607360c6565b604051808273ffffffffffffffffffffffffffffffffffffffff1673ffffffffffffffffffffffffffffffffffffffff16815260200191505060405180910390f35b60bb60eb565b005b565b005b600080fd5b6000809054906101000a900473ffffffffffffffffffffffffffffffffffffffff1681565bfefea265627a7a72315820a264cdc43c04c7b9664115d91660f999918cdca5b76cc3d6cf4a0d272cd4cc4564736f6c63430005100032",
  "source": "pragma solidity <0.6.0;\n\nimport \"./Abstracts/TestContractInterface.sol\";\n\ncontract Env is TestContractInterface {\n\n\n  function testOpcodes() public {\n\n    assembly{\n        pop(address())\n        pop(balance(address()))\n        pop(origin())\n        pop(gasprice())\n        pop(number())\n\n        //blockhash of previous block\n        pop(blockhash(sub(number(),1)))\n        pop(coinbase())\n        pop(timestamp())\n        pop(difficulty())\n        pop(gaslimit())\n        pop(gas())\n\n    }\n\n  }\n\n}",
  "sourcePath": "/home/greg/code/github.com/ChainSafe/truffle-plugin-abigen/example/contracts/blocks.sol",
  "compiler": {
    "name": "solc",
    "version": "0.5.16+commit.9c3226ce.Emscripten.clang"
  },
  "schemaVersion": "3.0.23",
  "updatedAt": "2020-09-27T17:19:46.970Z",
  "devdoc": {
    "methods": {}
  },
  "userdoc": {
    "methods": {}
  }
}